:100000000C945C000C946E000C946E000C946E00CA
:100010000C946E000C946E000C946E000C946E00A8
:100020000C946E000C946E000C946E000C946E0098
:100030000C946E000C946E000C946E000C946E0088
:100040000C9444010C946E000C946E000C946E00A1
:100050000C946E000C946E000C946E000C946E0068
:100060000C946E000C946E00000000080002010069
:100070000003040700000000000000000000000072
:10008000250028002B0000000000240027002A0083
:10009000040404040404040402020202020203032E
:1000A0000303030301020408102040800102040836
:1000B000102001020408102011241FBECFEFD8E049
:1000C000DEBFCDBF21E0A0E0B1E001C01D92A930AC
:1000D000B207E1F70E948E010C9417020C94000005
:1000E00090E0FC01EC55FF4F2491FC01E057FF4FDD
:1000F0008491882399F090E0880F991FFC01EA57BA
:10010000FF4FA591B491FC01E458FF4F8591949164
:100110008FB7F894EC91E22BEC938FBF08953FB723
:10012000F8948091050190910601A0910701B0918A
:10013000080126B5A89B05C02F3F19F00196A11D07
:10014000B11D3FBFBA2FA92F982F8827820F911D6D
:10015000A11DB11DBC01CD0142E0660F771F881FB4
:10016000991F4A95D1F70895CF93C82F0E94700028
:100170008C2F90E0FC01E859FF4F2491233019F1B6
:1001800050F42130D1F02230E1F584B5806284BD95
:1001900088EC88BD77C0273011F1283049F1243030
:1001A00081F58091800080628093800088EC90E0EF
:1001B00090938B0080938A0065C084B5806884BD6D
:1001C00088EC87BD5FC0809180008068809380004C
:1001D00088EC90E0909389008093880053C08091D0
:1001E000B00080688093B00088EC8093B3004AC070
:1001F0008091B00080628093B00088EC8093B4005E
:1002000041C02491FC01EC55FF4F3491FC01E057B3
:10021000FF4FE491EE23B1F1222339F1233091F025
:1002200038F42130A9F0223001F584B58F7D12C059
:10023000273091F02830A1F02430B9F4809180006B
:100240008F7D03C0809180008F77809380000DC0E8
:1002500084B58F7784BD09C08091B0008F7703C0CB
:100260008091B0008F7D8093B000F0E0EE0FFF1F13
:10027000E458FF4FA591B4918FB7F894EC91E32B1C
:10028000EC938FBFCF9108951F920F920FB60F92EC
:1002900011242F933F938F939F93AF93BF9380919C
:1002A000010190910201A0910301B09104013091EC
:1002B000000123E0230F2D3720F40196A11DB11D6D
:1002C00005C026E8230F0296A11DB11D2093000151
:1002D0008093010190930201A0930301B093040164
:1002E0008091050190910601A0910701B09108014C
:1002F0000196A11DB11D8093050190930601A09365
:100300000701B0930801BF91AF919F918F913F91E9
:100310002F910F900FBE0F901F901895789484B571
:10032000826084BD84B5816084BD85B5826085BDF1
:1003300085B5816085BD80916E00816080936E007F
:100340001092810080918100826080938100809171
:100350008100816080938100809180008160809322
:1003600080008091B10084608093B1008091B000E2
:1003700081608093B00080917A00846080937A00DD
:1003800080917A00826080937A0080917A00816007
:1003900080937A0080917A00806880937A0010922E
:1003A000C10089E00E94700085E00E94700083E037
:1003B0000E9470008DE00E947000C0E0D0E089E0F3
:1003C0000E94B40083E00E94B4000E948F006B0181
:1003D0007C0184EC882E89E0982EA12CB12C0E94FF
:1003E0008F00DC01CB018C199D09AE09BF09883E45
:1003F0009340A105B10598F321E0821A9108A10864
:10040000B10888EEC80E83E0D81EE11CF11C8114EF
:100410009104A104B10419F785E00E94B4008DE0B5
:100420000E94B400209759F20E940000C8CFF894AF
:02043000FFCFFC
:00000001FF
